{
	"math_operation.sol": {
		"MathOperations": {
			"abi": [
				{
					"inputs": [
						{
							"internalType": "uint256",
							"name": "a",
							"type": "uint256"
						},
						{
							"internalType": "uint256",
							"name": "b",
							"type": "uint256"
						}
					],
					"name": "add",
					"outputs": [
						{
							"internalType": "uint256",
							"name": "",
							"type": "uint256"
						}
					],
					"stateMutability": "view",
					"type": "function"
				},
				{
					"inputs": [
						{
							"internalType": "uint256",
							"name": "a",
							"type": "uint256"
						},
						{
							"internalType": "uint256",
							"name": "b",
							"type": "uint256"
						}
					],
					"name": "multiply",
					"outputs": [
						{
							"internalType": "uint256",
							"name": "",
							"type": "uint256"
						}
					],
					"stateMutability": "pure",
					"type": "function"
				},
				{
					"inputs": [],
					"name": "result",
					"outputs": [
						{
							"internalType": "uint256",
							"name": "",
							"type": "uint256"
						}
					],
					"stateMutability": "view",
					"type": "function"
				},
				{
					"inputs": [
						{
							"internalType": "uint256",
							"name": "value",
							"type": "uint256"
						}
					],
					"name": "updateResult",
					"outputs": [],
					"stateMutability": "nonpayable",
					"type": "function"
				}
			],
			"devdoc": {
				"kind": "dev",
				"methods": {},
				"version": 1
			},
			"evm": {
				"assembly": "    /* \"math_operation.sol\":61:504  contract MathOperations {... */\n  mstore(0x40, 0x80)\n  callvalue\n  dup1\n  iszero\n  tag_1\n  jumpi\n  0x00\n  dup1\n  revert\ntag_1:\n  pop\n  dataSize(sub_0)\n  dup1\n  dataOffset(sub_0)\n  0x00\n  codecopy\n  0x00\n  return\nstop\n\nsub_0: assembly {\n        /* \"math_operation.sol\":61:504  contract MathOperations {... */\n      mstore(0x40, 0x80)\n      callvalue\n      dup1\n      iszero\n      tag_1\n      jumpi\n      0x00\n      dup1\n      revert\n    tag_1:\n      pop\n      jumpi(tag_2, lt(calldatasize, 0x04))\n      shr(0xe0, calldataload(0x00))\n      dup1\n      0x165c4a16\n      eq\n      tag_3\n      jumpi\n      dup1\n      0x65372147\n      eq\n      tag_4\n      jumpi\n      dup1\n      0x771602f7\n      eq\n      tag_5\n      jumpi\n      dup1\n      0x82dcc26d\n      eq\n      tag_6\n      jumpi\n    tag_2:\n      0x00\n      dup1\n      revert\n        /* \"math_operation.sol\":268:419  function multiply(uint a, uint b) public pure returns (uint) {... */\n    tag_3:\n      tag_7\n      0x04\n      dup1\n      calldatasize\n      sub\n      dup2\n      add\n      swap1\n      tag_8\n      swap2\n      swap1\n      tag_9\n      jump\t// in\n    tag_8:\n      tag_10\n      jump\t// in\n    tag_7:\n      mload(0x40)\n      tag_11\n      swap2\n      swap1\n      tag_12\n      jump\t// in\n    tag_11:\n      mload(0x40)\n      dup1\n      swap2\n      sub\n      swap1\n      return\n        /* \"math_operation.sol\":97:115  uint public result */\n    tag_4:\n      tag_13\n      tag_14\n      jump\t// in\n    tag_13:\n      mload(0x40)\n      tag_15\n      swap2\n      swap1\n      tag_12\n      jump\t// in\n    tag_15:\n      mload(0x40)\n      dup1\n      swap2\n      sub\n      swap1\n      return\n        /* \"math_operation.sol\":126:260  function add(uint a, uint b) public view returns (uint) {... */\n    tag_5:\n      tag_16\n      0x04\n      dup1\n      calldatasize\n      sub\n      dup2\n      add\n      swap1\n      tag_17\n      swap2\n      swap1\n      tag_9\n      jump\t// in\n    tag_17:\n      tag_18\n      jump\t// in\n    tag_16:\n      mload(0x40)\n      tag_19\n      swap2\n      swap1\n      tag_12\n      jump\t// in\n    tag_19:\n      mload(0x40)\n      dup1\n      swap2\n      sub\n      swap1\n      return\n        /* \"math_operation.sol\":427:501  function updateResult(uint value) public {... */\n    tag_6:\n      tag_20\n      0x04\n      dup1\n      calldatasize\n      sub\n      dup2\n      add\n      swap1\n      tag_21\n      swap2\n      swap1\n      tag_22\n      jump\t// in\n    tag_21:\n      tag_23\n      jump\t// in\n    tag_20:\n      stop\n        /* \"math_operation.sol\":268:419  function multiply(uint a, uint b) public pure returns (uint) {... */\n    tag_10:\n        /* \"math_operation.sol\":323:327  uint */\n      0x00\n        /* \"math_operation.sol\":340:365  uint multiplicationResult */\n      dup1\n        /* \"math_operation.sol\":372:373  b */\n      dup3\n        /* \"math_operation.sol\":368:369  a */\n      dup5\n        /* \"math_operation.sol\":368:373  a * b */\n      tag_25\n      swap2\n      swap1\n      tag_26\n      jump\t// in\n    tag_25:\n        /* \"math_operation.sol\":340:373  uint multiplicationResult = a * b */\n      swap1\n      pop\n        /* \"math_operation.sol\":391:411  multiplicationResult */\n      dup1\n        /* \"math_operation.sol\":384:411  return multiplicationResult */\n      swap2\n      pop\n      pop\n        /* \"math_operation.sol\":268:419  function multiply(uint a, uint b) public pure returns (uint) {... */\n      swap3\n      swap2\n      pop\n      pop\n      jump\t// out\n        /* \"math_operation.sol\":97:115  uint public result */\n    tag_14:\n      sload(0x00)\n      dup2\n      jump\t// out\n        /* \"math_operation.sol\":126:260  function add(uint a, uint b) public view returns (uint) {... */\n    tag_18:\n        /* \"math_operation.sol\":176:180  uint */\n      0x00\n        /* \"math_operation.sol\":193:212  uint additionResult */\n      dup1\n        /* \"math_operation.sol\":219:220  b */\n      dup3\n        /* \"math_operation.sol\":215:216  a */\n      dup5\n        /* \"math_operation.sol\":215:220  a + b */\n      tag_28\n      swap2\n      swap1\n      tag_29\n      jump\t// in\n    tag_28:\n        /* \"math_operation.sol\":193:220  uint additionResult = a + b */\n      swap1\n      pop\n        /* \"math_operation.sol\":238:252  additionResult */\n      dup1\n        /* \"math_operation.sol\":231:252  return additionResult */\n      swap2\n      pop\n      pop\n        /* \"math_operation.sol\":126:260  function add(uint a, uint b) public view returns (uint) {... */\n      swap3\n      swap2\n      pop\n      pop\n      jump\t// out\n        /* \"math_operation.sol\":427:501  function updateResult(uint value) public {... */\n    tag_23:\n        /* \"math_operation.sol\":488:493  value */\n      dup1\n        /* \"math_operation.sol\":479:485  result */\n      0x00\n        /* \"math_operation.sol\":479:493  result = value */\n      dup2\n      swap1\n      sstore\n      pop\n        /* \"math_operation.sol\":427:501  function updateResult(uint value) public {... */\n      pop\n      jump\t// out\n        /* \"#utility.yul\":88:205   */\n    tag_32:\n        /* \"#utility.yul\":197:198   */\n      0x00\n        /* \"#utility.yul\":194:195   */\n      dup1\n        /* \"#utility.yul\":187:199   */\n      revert\n        /* \"#utility.yul\":334:411   */\n    tag_34:\n        /* \"#utility.yul\":371:378   */\n      0x00\n        /* \"#utility.yul\":400:405   */\n      dup2\n        /* \"#utility.yul\":389:405   */\n      swap1\n      pop\n        /* \"#utility.yul\":334:411   */\n      swap2\n      swap1\n      pop\n      jump\t// out\n        /* \"#utility.yul\":417:539   */\n    tag_35:\n        /* \"#utility.yul\":490:514   */\n      tag_45\n        /* \"#utility.yul\":508:513   */\n      dup2\n        /* \"#utility.yul\":490:514   */\n      tag_34\n      jump\t// in\n    tag_45:\n        /* \"#utility.yul\":483:488   */\n      dup2\n        /* \"#utility.yul\":480:515   */\n      eq\n        /* \"#utility.yul\":470:533   */\n      tag_46\n      jumpi\n        /* \"#utility.yul\":529:530   */\n      0x00\n        /* \"#utility.yul\":526:527   */\n      dup1\n        /* \"#utility.yul\":519:531   */\n      revert\n        /* \"#utility.yul\":470:533   */\n    tag_46:\n        /* \"#utility.yul\":417:539   */\n      pop\n      jump\t// out\n        /* \"#utility.yul\":545:684   */\n    tag_36:\n        /* \"#utility.yul\":591:596   */\n      0x00\n        /* \"#utility.yul\":629:635   */\n      dup2\n        /* \"#utility.yul\":616:636   */\n      calldataload\n        /* \"#utility.yul\":607:636   */\n      swap1\n      pop\n        /* \"#utility.yul\":645:678   */\n      tag_48\n        /* \"#utility.yul\":672:677   */\n      dup2\n        /* \"#utility.yul\":645:678   */\n      tag_35\n      jump\t// in\n    tag_48:\n        /* \"#utility.yul\":545:684   */\n      swap3\n      swap2\n      pop\n      pop\n      jump\t// out\n        /* \"#utility.yul\":690:1164   */\n    tag_9:\n        /* \"#utility.yul\":758:764   */\n      0x00\n        /* \"#utility.yul\":766:772   */\n      dup1\n        /* \"#utility.yul\":815:817   */\n      0x40\n        /* \"#utility.yul\":803:812   */\n      dup4\n        /* \"#utility.yul\":794:801   */\n      dup6\n        /* \"#utility.yul\":790:813   */\n      sub\n        /* \"#utility.yul\":786:818   */\n      slt\n        /* \"#utility.yul\":783:902   */\n      iszero\n      tag_50\n      jumpi\n        /* \"#utility.yul\":821:900   */\n      tag_51\n      tag_32\n      jump\t// in\n    tag_51:\n        /* \"#utility.yul\":783:902   */\n    tag_50:\n        /* \"#utility.yul\":941:942   */\n      0x00\n        /* \"#utility.yul\":966:1019   */\n      tag_52\n        /* \"#utility.yul\":1011:1018   */\n      dup6\n        /* \"#utility.yul\":1002:1008   */\n      dup3\n        /* \"#utility.yul\":991:1000   */\n      dup7\n        /* \"#utility.yul\":987:1009   */\n      add\n        /* \"#utility.yul\":966:1019   */\n      tag_36\n      jump\t// in\n    tag_52:\n        /* \"#utility.yul\":956:1019   */\n      swap3\n      pop\n        /* \"#utility.yul\":912:1029   */\n      pop\n        /* \"#utility.yul\":1068:1070   */\n      0x20\n        /* \"#utility.yul\":1094:1147   */\n      tag_53\n        /* \"#utility.yul\":1139:1146   */\n      dup6\n        /* \"#utility.yul\":1130:1136   */\n      dup3\n        /* \"#utility.yul\":1119:1128   */\n      dup7\n        /* \"#utility.yul\":1115:1137   */\n      add\n        /* \"#utility.yul\":1094:1147   */\n      tag_36\n      jump\t// in\n    tag_53:\n        /* \"#utility.yul\":1084:1147   */\n      swap2\n      pop\n        /* \"#utility.yul\":1039:1157   */\n      pop\n        /* \"#utility.yul\":690:1164   */\n      swap3\n      pop\n      swap3\n      swap1\n      pop\n      jump\t// out\n        /* \"#utility.yul\":1170:1288   */\n    tag_37:\n        /* \"#utility.yul\":1257:1281   */\n      tag_55\n        /* \"#utility.yul\":1275:1280   */\n      dup2\n        /* \"#utility.yul\":1257:1281   */\n      tag_34\n      jump\t// in\n    tag_55:\n        /* \"#utility.yul\":1252:1255   */\n      dup3\n        /* \"#utility.yul\":1245:1282   */\n      mstore\n        /* \"#utility.yul\":1170:1288   */\n      pop\n      pop\n      jump\t// out\n        /* \"#utility.yul\":1294:1516   */\n    tag_12:\n        /* \"#utility.yul\":1387:1391   */\n      0x00\n        /* \"#utility.yul\":1425:1427   */\n      0x20\n        /* \"#utility.yul\":1414:1423   */\n      dup3\n        /* \"#utility.yul\":1410:1428   */\n      add\n        /* \"#utility.yul\":1402:1428   */\n      swap1\n      pop\n        /* \"#utility.yul\":1438:1509   */\n      tag_57\n        /* \"#utility.yul\":1506:1507   */\n      0x00\n        /* \"#utility.yul\":1495:1504   */\n      dup4\n        /* \"#utility.yul\":1491:1508   */\n      add\n        /* \"#utility.yul\":1482:1488   */\n      dup5\n        /* \"#utility.yul\":1438:1509   */\n      tag_37\n      jump\t// in\n    tag_57:\n        /* \"#utility.yul\":1294:1516   */\n      swap3\n      swap2\n      pop\n      pop\n      jump\t// out\n        /* \"#utility.yul\":1522:1851   */\n    tag_22:\n        /* \"#utility.yul\":1581:1587   */\n      0x00\n        /* \"#utility.yul\":1630:1632   */\n      0x20\n        /* \"#utility.yul\":1618:1627   */\n      dup3\n        /* \"#utility.yul\":1609:1616   */\n      dup5\n        /* \"#utility.yul\":1605:1628   */\n      sub\n        /* \"#utility.yul\":1601:1633   */\n      slt\n        /* \"#utility.yul\":1598:1717   */\n      iszero\n      tag_59\n      jumpi\n        /* \"#utility.yul\":1636:1715   */\n      tag_60\n      tag_32\n      jump\t// in\n    tag_60:\n        /* \"#utility.yul\":1598:1717   */\n    tag_59:\n        /* \"#utility.yul\":1756:1757   */\n      0x00\n        /* \"#utility.yul\":1781:1834   */\n      tag_61\n        /* \"#utility.yul\":1826:1833   */\n      dup5\n        /* \"#utility.yul\":1817:1823   */\n      dup3\n        /* \"#utility.yul\":1806:1815   */\n      dup6\n        /* \"#utility.yul\":1802:1824   */\n      add\n        /* \"#utility.yul\":1781:1834   */\n      tag_36\n      jump\t// in\n    tag_61:\n        /* \"#utility.yul\":1771:1834   */\n      swap2\n      pop\n        /* \"#utility.yul\":1727:1844   */\n      pop\n        /* \"#utility.yul\":1522:1851   */\n      swap3\n      swap2\n      pop\n      pop\n      jump\t// out\n        /* \"#utility.yul\":1857:2037   */\n    tag_38:\n        /* \"#utility.yul\":1905:1982   */\n      0x4e487b7100000000000000000000000000000000000000000000000000000000\n        /* \"#utility.yul\":1902:1903   */\n      0x00\n        /* \"#utility.yul\":1895:1983   */\n      mstore\n        /* \"#utility.yul\":2002:2006   */\n      0x11\n        /* \"#utility.yul\":1999:2000   */\n      0x04\n        /* \"#utility.yul\":1992:2007   */\n      mstore\n        /* \"#utility.yul\":2026:2030   */\n      0x24\n        /* \"#utility.yul\":2023:2024   */\n      0x00\n        /* \"#utility.yul\":2016:2031   */\n      revert\n        /* \"#utility.yul\":2043:2453   */\n    tag_26:\n        /* \"#utility.yul\":2083:2090   */\n      0x00\n        /* \"#utility.yul\":2106:2126   */\n      tag_64\n        /* \"#utility.yul\":2124:2125   */\n      dup3\n        /* \"#utility.yul\":2106:2126   */\n      tag_34\n      jump\t// in\n    tag_64:\n        /* \"#utility.yul\":2101:2126   */\n      swap2\n      pop\n        /* \"#utility.yul\":2140:2160   */\n      tag_65\n        /* \"#utility.yul\":2158:2159   */\n      dup4\n        /* \"#utility.yul\":2140:2160   */\n      tag_34\n      jump\t// in\n    tag_65:\n        /* \"#utility.yul\":2135:2160   */\n      swap3\n      pop\n        /* \"#utility.yul\":2195:2196   */\n      dup3\n        /* \"#utility.yul\":2192:2193   */\n      dup3\n        /* \"#utility.yul\":2188:2197   */\n      mul\n        /* \"#utility.yul\":2217:2247   */\n      tag_66\n        /* \"#utility.yul\":2235:2246   */\n      dup2\n        /* \"#utility.yul\":2217:2247   */\n      tag_34\n      jump\t// in\n    tag_66:\n        /* \"#utility.yul\":2206:2247   */\n      swap2\n      pop\n        /* \"#utility.yul\":2396:2397   */\n      dup3\n        /* \"#utility.yul\":2387:2394   */\n      dup3\n        /* \"#utility.yul\":2383:2398   */\n      div\n        /* \"#utility.yul\":2380:2381   */\n      dup5\n        /* \"#utility.yul\":2377:2399   */\n      eq\n        /* \"#utility.yul\":2357:2358   */\n      dup4\n        /* \"#utility.yul\":2350:2359   */\n      iszero\n        /* \"#utility.yul\":2330:2413   */\n      or\n        /* \"#utility.yul\":2307:2446   */\n      tag_67\n      jumpi\n        /* \"#utility.yul\":2426:2444   */\n      tag_68\n      tag_38\n      jump\t// in\n    tag_68:\n        /* \"#utility.yul\":2307:2446   */\n    tag_67:\n        /* \"#utility.yul\":2091:2453   */\n      pop\n        /* \"#utility.yul\":2043:2453   */\n      swap3\n      swap2\n      pop\n      pop\n      jump\t// out\n        /* \"#utility.yul\":2459:2650   */\n    tag_29:\n        /* \"#utility.yul\":2499:2502   */\n      0x00\n        /* \"#utility.yul\":2518:2538   */\n      tag_70\n        /* \"#utility.yul\":2536:2537   */\n      dup3\n        /* \"#utility.yul\":2518:2538   */\n      tag_34\n      jump\t// in\n    tag_70:\n        /* \"#utility.yul\":2513:2538   */\n      swap2\n      pop\n        /* \"#utility.yul\":2552:2572   */\n      tag_71\n        /* \"#utility.yul\":2570:2571   */\n      dup4\n        /* \"#utility.yul\":2552:2572   */\n      tag_34\n      jump\t// in\n    tag_71:\n        /* \"#utility.yul\":2547:2572   */\n      swap3\n      pop\n        /* \"#utility.yul\":2595:2596   */\n      dup3\n        /* \"#utility.yul\":2592:2593   */\n      dup3\n        /* \"#utility.yul\":2588:2597   */\n      add\n        /* \"#utility.yul\":2581:2597   */\n      swap1\n      pop\n        /* \"#utility.yul\":2616:2619   */\n      dup1\n        /* \"#utility.yul\":2613:2614   */\n      dup3\n        /* \"#utility.yul\":2610:2620   */\n      gt\n        /* \"#utility.yul\":2607:2643   */\n      iszero\n      tag_72\n      jumpi\n        /* \"#utility.yul\":2623:2641   */\n      tag_73\n      tag_38\n      jump\t// in\n    tag_73:\n        /* \"#utility.yul\":2607:2643   */\n    tag_72:\n        /* \"#utility.yul\":2459:2650   */\n      swap3\n      swap2\n      pop\n      pop\n      jump\t// out\n\n    auxdata: 0xa2646970667358221220cd662088a02e180ba581a89ff55b8261750787d0a220f1b59fa92ad815c389b964736f6c63430008160033\n}\n",
				"bytecode": {
					"linkReferences": {},
					"object": "608060405234801561000f575f80fd5b506102c98061001d5f395ff3fe608060405234801561000f575f80fd5b506004361061004a575f3560e01c8063165c4a161461004e578063653721471461007e578063771602f71461009c57806382dcc26d146100cc575b5f80fd5b61006860048036038101906100639190610161565b6100e8565b60405161007591906101ae565b60405180910390f35b610086610102565b60405161009391906101ae565b60405180910390f35b6100b660048036038101906100b19190610161565b610107565b6040516100c391906101ae565b60405180910390f35b6100e660048036038101906100e191906101c7565b610121565b005b5f8082846100f6919061021f565b90508091505092915050565b5f5481565b5f8082846101159190610260565b90508091505092915050565b805f8190555050565b5f80fd5b5f819050919050565b6101408161012e565b811461014a575f80fd5b50565b5f8135905061015b81610137565b92915050565b5f80604083850312156101775761017661012a565b5b5f6101848582860161014d565b92505060206101958582860161014d565b9150509250929050565b6101a88161012e565b82525050565b5f6020820190506101c15f83018461019f565b92915050565b5f602082840312156101dc576101db61012a565b5b5f6101e98482850161014d565b91505092915050565b7f4e487b71000000000000000000000000000000000000000000000000000000005f52601160045260245ffd5b5f6102298261012e565b91506102348361012e565b92508282026102428161012e565b91508282048414831517610259576102586101f2565b5b5092915050565b5f61026a8261012e565b91506102758361012e565b925082820190508082111561028d5761028c6101f2565b5b9291505056fea2646970667358221220cd662088a02e180ba581a89ff55b8261750787d0a220f1b59fa92ad815c389b964736f6c63430008160033",
					"opcodes": "PUSH1 0x80 PUSH1 0x40 MSTORE CALLVALUE DUP1 ISZERO PUSH2 0xF JUMPI PUSH0 DUP1 REVERT JUMPDEST POP PUSH2 0x2C9 DUP1 PUSH2 0x1D PUSH0 CODECOPY PUSH0 RETURN INVALID PUSH1 0x80 PUSH1 0x40 MSTORE CALLVALUE DUP1 ISZERO PUSH2 0xF JUMPI PUSH0 DUP1 REVERT JUMPDEST POP PUSH1 0x4 CALLDATASIZE LT PUSH2 0x4A JUMPI PUSH0 CALLDATALOAD PUSH1 0xE0 SHR DUP1 PUSH4 0x165C4A16 EQ PUSH2 0x4E JUMPI DUP1 PUSH4 0x65372147 EQ PUSH2 0x7E JUMPI DUP1 PUSH4 0x771602F7 EQ PUSH2 0x9C JUMPI DUP1 PUSH4 0x82DCC26D EQ PUSH2 0xCC JUMPI JUMPDEST PUSH0 DUP1 REVERT JUMPDEST PUSH2 0x68 PUSH1 0x4 DUP1 CALLDATASIZE SUB DUP2 ADD SWAP1 PUSH2 0x63 SWAP2 SWAP1 PUSH2 0x161 JUMP JUMPDEST PUSH2 0xE8 JUMP JUMPDEST PUSH1 0x40 MLOAD PUSH2 0x75 SWAP2 SWAP1 PUSH2 0x1AE JUMP JUMPDEST PUSH1 0x40 MLOAD DUP1 SWAP2 SUB SWAP1 RETURN JUMPDEST PUSH2 0x86 PUSH2 0x102 JUMP JUMPDEST PUSH1 0x40 MLOAD PUSH2 0x93 SWAP2 SWAP1 PUSH2 0x1AE JUMP JUMPDEST PUSH1 0x40 MLOAD DUP1 SWAP2 SUB SWAP1 RETURN JUMPDEST PUSH2 0xB6 PUSH1 0x4 DUP1 CALLDATASIZE SUB DUP2 ADD SWAP1 PUSH2 0xB1 SWAP2 SWAP1 PUSH2 0x161 JUMP JUMPDEST PUSH2 0x107 JUMP JUMPDEST PUSH1 0x40 MLOAD PUSH2 0xC3 SWAP2 SWAP1 PUSH2 0x1AE JUMP JUMPDEST PUSH1 0x40 MLOAD DUP1 SWAP2 SUB SWAP1 RETURN JUMPDEST PUSH2 0xE6 PUSH1 0x4 DUP1 CALLDATASIZE SUB DUP2 ADD SWAP1 PUSH2 0xE1 SWAP2 SWAP1 PUSH2 0x1C7 JUMP JUMPDEST PUSH2 0x121 JUMP JUMPDEST STOP JUMPDEST PUSH0 DUP1 DUP3 DUP5 PUSH2 0xF6 SWAP2 SWAP1 PUSH2 0x21F JUMP JUMPDEST SWAP1 POP DUP1 SWAP2 POP POP SWAP3 SWAP2 POP POP JUMP JUMPDEST PUSH0 SLOAD DUP2 JUMP JUMPDEST PUSH0 DUP1 DUP3 DUP5 PUSH2 0x115 SWAP2 SWAP1 PUSH2 0x260 JUMP JUMPDEST SWAP1 POP DUP1 SWAP2 POP POP SWAP3 SWAP2 POP POP JUMP JUMPDEST DUP1 PUSH0 DUP2 SWAP1 SSTORE POP POP JUMP JUMPDEST PUSH0 DUP1 REVERT JUMPDEST PUSH0 DUP2 SWAP1 POP SWAP2 SWAP1 POP JUMP JUMPDEST PUSH2 0x140 DUP2 PUSH2 0x12E JUMP JUMPDEST DUP2 EQ PUSH2 0x14A JUMPI PUSH0 DUP1 REVERT JUMPDEST POP JUMP JUMPDEST PUSH0 DUP2 CALLDATALOAD SWAP1 POP PUSH2 0x15B DUP2 PUSH2 0x137 JUMP JUMPDEST SWAP3 SWAP2 POP POP JUMP JUMPDEST PUSH0 DUP1 PUSH1 0x40 DUP4 DUP6 SUB SLT ISZERO PUSH2 0x177 JUMPI PUSH2 0x176 PUSH2 0x12A JUMP JUMPDEST JUMPDEST PUSH0 PUSH2 0x184 DUP6 DUP3 DUP7 ADD PUSH2 0x14D JUMP JUMPDEST SWAP3 POP POP PUSH1 0x20 PUSH2 0x195 DUP6 DUP3 DUP7 ADD PUSH2 0x14D JUMP JUMPDEST SWAP2 POP POP SWAP3 POP SWAP3 SWAP1 POP JUMP JUMPDEST PUSH2 0x1A8 DUP2 PUSH2 0x12E JUMP JUMPDEST DUP3 MSTORE POP POP JUMP JUMPDEST PUSH0 PUSH1 0x20 DUP3 ADD SWAP1 POP PUSH2 0x1C1 PUSH0 DUP4 ADD DUP5 PUSH2 0x19F JUMP JUMPDEST SWAP3 SWAP2 POP POP JUMP JUMPDEST PUSH0 PUSH1 0x20 DUP3 DUP5 SUB SLT ISZERO PUSH2 0x1DC JUMPI PUSH2 0x1DB PUSH2 0x12A JUMP JUMPDEST JUMPDEST PUSH0 PUSH2 0x1E9 DUP5 DUP3 DUP6 ADD PUSH2 0x14D JUMP JUMPDEST SWAP2 POP POP SWAP3 SWAP2 POP POP JUMP JUMPDEST PUSH32 0x4E487B7100000000000000000000000000000000000000000000000000000000 PUSH0 MSTORE PUSH1 0x11 PUSH1 0x4 MSTORE PUSH1 0x24 PUSH0 REVERT JUMPDEST PUSH0 PUSH2 0x229 DUP3 PUSH2 0x12E JUMP JUMPDEST SWAP2 POP PUSH2 0x234 DUP4 PUSH2 0x12E JUMP JUMPDEST SWAP3 POP DUP3 DUP3 MUL PUSH2 0x242 DUP2 PUSH2 0x12E JUMP JUMPDEST SWAP2 POP DUP3 DUP3 DIV DUP5 EQ DUP4 ISZERO OR PUSH2 0x259 JUMPI PUSH2 0x258 PUSH2 0x1F2 JUMP JUMPDEST JUMPDEST POP SWAP3 SWAP2 POP POP JUMP JUMPDEST PUSH0 PUSH2 0x26A DUP3 PUSH2 0x12E JUMP JUMPDEST SWAP2 POP PUSH2 0x275 DUP4 PUSH2 0x12E JUMP JUMPDEST SWAP3 POP DUP3 DUP3 ADD SWAP1 POP DUP1 DUP3 GT ISZERO PUSH2 0x28D JUMPI PUSH2 0x28C PUSH2 0x1F2 JUMP JUMPDEST JUMPDEST SWAP3 SWAP2 POP POP JUMP INVALID LOG2 PUSH5 0x6970667358 0x22 SLT KECCAK256 0xCD PUSH7 0x2088A02E180BA5 DUP2 0xA8 SWAP16 CREATE2 JUMPDEST DUP3 PUSH2 0x7507 DUP8 0xD0 LOG2 KECCAK256 CALL 0xB5 SWAP16 0xA9 0x2A 0xD8 ISZERO 0xC3 DUP10 0xB9 PUSH5 0x736F6C6343 STOP ADDMOD AND STOP CALLER "
				},
				"gasEstimates": {
					"creation": {
						"codeDepositCost": "142600",
						"executionCost": "188",
						"totalCost": "142788"
					},
					"external": {
						"add(uint256,uint256)": "infinite",
						"multiply(uint256,uint256)": "infinite",
						"result()": "2424",
						"updateResult(uint256)": "22558"
					}
				},
				"methodIdentifiers": {
					"add(uint256,uint256)": "771602f7",
					"multiply(uint256,uint256)": "165c4a16",
					"result()": "65372147",
					"updateResult(uint256)": "82dcc26d"
				}
			},
			"storageLayout": {
				"storage": [
					{
						"astId": 3,
						"contract": "math_operation.sol:MathOperations",
						"label": "result",
						"offset": 0,
						"slot": "0",
						"type": "t_uint256"
					}
				],
				"types": {
					"t_uint256": {
						"encoding": "inplace",
						"label": "uint256",
						"numberOfBytes": "32"
					}
				}
			},
			"userdoc": {
				"kind": "user",
				"methods": {},
				"version": 1
			}
		}
	}
}